:10000000000002207D170000A9170000A9170000BA
:10001000A9170000A9170000A9170000A9170000E0
:10002000A9170000A9170000A9170000A9170000D0
:10003000A9170000A9170000A9170000A9170000C0
:10004000A9170000A9170000A9170000A9170000B0
:10005000A9170000A9170000A9170000A9170000A0
:10006000A9170000A9170000A9170000A917000090
:10007000A9170000A9170000A9170000A917000080
:10008000A9170000A9170000A9170000A917000070
:10009000A9170000A9170000A9170000A917000060
:1000A000A9170000A9170000A9170000A917000050
:1000B000A9170000A9170000B9020000A917000045
:1000C000A9170000A9170000A9170000A917000030
:1000D000A9170000A9170000A917000010B5054CCA
:1000E000237833B9044B13B10448AFF300800123E4
:1000F000237010BD800000200000000034AE00001E
:1001000008B5064B1BB106480649AFF30080064808
:10011000036813B1054B03B1984708BD0000000008
:1001200034AE0000840000207C00002000000000AD
:10013000154B002B08BF134B9D46A3F5803A0021B9
:100140008B460F461348144A121A08F0A5FD0F4BB0
:10015000002B00D098470E4B002B00D09847002072
:10016000002104000D000D48002802D00C48AFF318
:10017000008008F04BFD2000290000F037F808F05F
:10018000D3FC00BF000008000000022000000000B7
:100190000000000080000020C400002000000000DB
:1001A0000000000080B582B000AF0E4B1B687B6082
:1001B0003B46184601F0A8FA7B681B0E0F2B0DD9A1
:1001C0003B78032B0AD1084B074A126822F05002F1
:1001D00042F010021A6001E002F056FB0837BD46FB
:1001E00080BD00BFFC81E00FC0800C4080B500AF37
:1001F000FFF7D8FF00F022F800F092F8012001F09C
:10020000CDF8FBE780B483B000AF03463960FB71E3
:100210000948FA793B68012101FA03F319461346AC
:10022000DB0013449B000344103319600C37BD46B8
:100230005DF8047B704700BF0060004080B500AFF0
:100240000748012100F002FC0220002104220023C3
:1002500001F06CF902200021FFF7D4FF80BD00BF40
:1002600000D2040080B483B000AF7860034B7A689A
:100270009A610C37BD465DF8047B7047000008406A
:1002800080B483B000AF03463960FB710948FA7946
:100290003B68012101FA03F319461346DB001344BE
:1002A0009B000344183319600C37BD465DF8047B8E
:1002B000704700BF0060004080B500AF0220FFF72C
:1002C000D1FF02200021FFF7DBFF80BD80B483B0A7
:1002D00000AF0346FB71084B97F907205209F979E3
:1002E00001F01F01012000FA01F143F822100C3740
:1002F000BD465DF8047B704700E100E080B483B048
:1003000000AF7860054B054AD1697A680A43DA6123
:100310000C37BD465DF8047B704700BF0000084005
:1003200080B582B000AF1A4A3B1D118892781980BF
:100330009A701848012100F089FB1748022100F04B
:10034000ADFD16484FF4004100F058FA1348012162
:1003500000F07CFB00233B7100237B710123BB7108
:100360003B1D184601F0A8F9002040F60F6101F08E
:100370006DF91E20FFF7AAFF0220FFF7BFFF012043
:1003800001F08AF901E002F07FFA0837BD4680BD2E
:10039000949C000000430200020018007016100038
:1003A00080B487B000AFF860B9607A60FB6803F191
:1003B0000473DA00BB6813449B007B617B697A6835
:1003C0001A601C37BD465DF8047B704780B485B069
:1003D00000AF786039607B6803F10473DA003B6832
:1003E00013449B00FB60FB681B6818461437BD462E
:1003F0005DF8047B704700BF80B487B000AF7860C1
:100400007B68002B04D07B68B3F5004F00D800BF99
:100410007B683B613B69B3FA83F3FB60FB68DBB24B
:10042000C3F11F037B617B6918461C37BD465DF82D
:10043000047B704780B400AF054BDB6C03F47F0393
:100440001B0CDBB21846BD465DF8047B704700BF4D
:10045000B081E00F80B483B000AF1A4B5B6903F446
:10046000E063B3F5007F14D0B3F5007F05D8002B0F
:1004700015D0B3F5807F0FD01AE0B3F5C06F14D05C
:10048000B3F5E06F0ED0B3F5407F11D10E4B7B601A
:1004900011E00E4B7B600EE00D4B7B600BE00D4BD3
:1004A0007B6008E00C4B7B6005E00C4B7B6002E05E
:1004B00000237B6000BF7B6818460C37BD465DF8A3
:1004C000047B704700800C4040420F00C0CF6A00A0
:1004D000C0D8A700809FD500406F4001003FAB010E
:1004E00080B582B000AF124800F028FC0346FB70D4
:1004F000FB78072B0FD0082B11D101F093F978600E
:100500000C4B1B6803F4E0339B0B01337A68B2FB9E
:10051000F3F37B6006E0FFF79DFF786002E00023C5
:100520007B6000BF7B6818460837BD4680BD00BFB2
:1005300006000C0000800C4080B485B000AF7860ED
:10054000284BDB6B002B0CBF00230123BB72254B18
:1005500041F67132DA63234B5B6803F00703FB60FB
:10056000FB68012B01D9042B02D10023FB7202E0AE
:100570000123FB7200BF7A681B4B9A4207D9FB7AB2
:10058000002B01D0052300E00423FB6016E07A680D
:10059000154B9A420BD87A68144B9A4207D9FB7ACA
:1005A000002B01D0032300E00123FB6006E0FB7A6F
:1005B000002B01D0022300E00023FB60094B094A15
:1005C000526822F00701FA680A435A60BB7A002B8E
:1005D00002D0044B0022DA631437BD465DF8047B79
:1005E000704700BF00000C400048E8010024F40000
:1005F00080B500AF01F00CF903461846FFF79CFFE9
:1006000080BD00BF80B584B000AF78600023BB60C0
:100610007B683A4A934203D0394A934200D000E0C3
:1006200000BF786800F08AFB0346FB607B68334AB2
:10063000934203D0324A934206D00CE0314B9B6A7E
:1006400003F00303FB6006E02E4B9B6A03F00C03F0
:100650009B08FB6000BFFB68032B47D801A252F840
:1006600023F000BFB5060000750600007D060000FF
:100670008506000001F060F9B8603AE001F070F919
:10068000B86036E01F4B5B6803F48073002B05D124
:100690001C4B1B6803F08043002B05D001F094F83D
:1006A00003469B08BB6024E001F08EF803465B081C
:1006B000BB601EE00023BB607A68104B9A4203D0F7
:1006C0007A680F4B9A4210D10E4B9A6A79680B4B9D
:1006D000994201D1102300E0142322FA03F3002BE6
:1006E00003D001F033F9B86003E002E00023BB60FF
:1006F00000BFBB6818461037BD4680BD0200180019
:1007000003001A0000800C4080B582B000AFFFF7F4
:1007100091FE0346482B23D04A2B23D1144B1B694F
:100720009BB203F03F039BB21B02FB80104B9B6903
:100730009BB203F0F0039AB2FB881343FB800C4B8F
:10074000DB6903F0F0031B099AB2FB881343FB80BB
:10075000FB88B3F5017F01D3064B04E0064B02E0B2
:10076000054B00E0002318460837BD4680BD00BF9A
:10077000D0FF0FE000366E010048E80180B483B07E
:1007800000AF7860094B5B6D03F00103002B00D0D4
:1007900006E000BF054B1A6D7B681340002BF9D1B2
:1007A0000C37BD465DF8047B704700BF00800C40ED
:1007B00080B582B000AF104800F0C0FA0346FB706D
:1007C000FB78032B07D0082B09D0022B0BD101F0AB
:1007D000C7F878600AE001F0AFF8786006E001F051
:1007E00021F8786002E000237B6000BF7B68184638
:1007F0000837BD4680BD00BF07232000B0B584B0D8
:1008000000AF786039607B681B0903F00F03FB6061
:10081000FB68013B072B00F2048101A252F823F090
:1008200041080000230A0000230A000075080000A8
:100830009F080000230A00000B090000CF090000F8
:100840003B68002B03D03B68082B00D800BFFFF7A4
:10085000CFFE764B754A126822F4E0313A68013ACD
:1008600092030A431A6000F0AFFFB860B868FFF760
:1008700063FED7E03B68002B04D03B68B3F5007FF4
:1008800000D800BF3868FFF7B7FD3860674B674A8C
:10089000926822F00F013A680A439A60C2E0FFF7BB
:1008A000A7FE112000F04AF902463B68B2FBF3F4C0
:1008B000FFF72AFF03469C420AD85C481E2100220B
:1008C000FFF76EFD5A4808210022FFF769FD09E095
:1008D00056481E210122FFF763FD554808210122D9
:1008E000FFF75EFD3868FFF787FD38604F4B4F4AD2
:1008F000526822F00F013A680A435A6000F064FF20
:10090000B860B868FFF718FE8CE07B68494A9342EC
:100910001ED0484A934203D8474A934207D055E035
:10092000464A934225D0464A93423FD04EE00420A7
:10093000FFF724FF3868FFF75FFD38603B4B3B4A09
:10094000926E22F0F0013A6812010A439A663DE085
:100950000420FFF713FF3868FFF74EFD3860334B74
:10096000324A926E22F470613A6812020A439A6621
:100970002CE03B680F2B03D93B68802B00D800BFCD
:100980000420FFF7FBFE3868FFF736FD3860274C80
:10099000264B9B6E23F440551020FFF72DFD034698
:1009A0003A68D31A1B032B43A3660FE00420FFF71A
:1009B000E5FE3868FFF720FD38601C4B1B4A926E3D
:1009C00022F003013A680A439A6600BF2AE07B6876
:1009D0001C4A934203D01C4A934210D020E040208E
:1009E000FFF7CCFE3868FFF707FD38600F4B0F4A62
:1009F000126F22F003013A680A431A6710E04020A0
:100A0000FFF7BCFE3868FFF7F7FC3860074B074A72
:100A1000126F22F030013A6812010A431A6700BFD0
:100A200000E000BF1037BD46B0BD00BF00800C40E5
:100A300004800C4070261200701610007000240014
:100A400070062800800714008017160090B587B044
:100A500000AF78600B46FB7000233B617B681B0A8C
:100A600003F00F03013B092B52D801A252F823F0E7
:100A7000C70A0000CD0A0000990A0000110B00000F
:100A8000110B0000D30A0000DD0A0000110B00006A
:100A9000110B0000E70A00001F4B7B611F4800F0AC
:100AA0004DF80446FFF730FE03469C420AD91C4825
:100AB0001E210122FFF774FC1A4808210122FFF7CA
:100AC0006FFC13E012E0184B7B610FE0174B7B616A
:100AD0000CE0174B7B6101233B6107E0154B7B6109
:100AE00010233B6102E0144B7B6100BF7B681B0B52
:100AF00003F01F03FB603B69002B02D03869FFF74E
:100B00003DFEFB787869F9681A46FFF749FC00E07A
:100B100000BF1C37BD4690BD40800C405000020015
:100B200000800C4004800C4008800C4044800C4045
:100B300058800C4060800C4078800C4090B585B0A7
:100B400000AF78607B6803F47813B3F5A01F00F062
:100B5000C080B3F5A01F1AD8B3F5402F00F0D480A1
:100B6000B3F5402F08D8B3F5003F51D0B3F5802F2F
:100B700038D0002B28D0D3E0B3F5801F51D0B3F587
:100B8000901F5CD0B3F5602F00F0C280C8E0B3F5D1
:100B9000001F00F0C180B3F5001F0BD8B3F5C01FD4
:100BA0003AD0B3F5D01F00F08F80B3F5B01F00F03E
:100BB0009D80B5E0B3F5181F62D0B3F5201F76D045
:100BC000B3F5101F49D0ABE000F02CFEF860584B95
:100BD0001B6803F4E0339B0B0133FA68B2FBF3F3B9
:100BE000FB60A0E000F01EFEF860514B1B6803F4B0
:100BF000E0339B0B0133FA68B2FBF3F3FB604C4B21
:100C00009B6803F00F03FA6822FA03F3FB608AE0A3
:100C100000F0DAFDF86086E04648FFF7F3FCF86084
:100C200081E04448FFF7EEFCF860414B9B6E03F017
:100C3000F0031B09FA6822FA03F3FB6073E03D48F6
:100C4000FFF7E0FCF8603A4B9B6E03F470631B0AFD
:100C5000FA6822FA03F3FB6065E03648FFF7D2FC3E
:100C6000F860334B9B6E03F440531C0B1020FFF7CE
:100C7000C3FB03462344FA6822FA03F3FB6052E005
:100C80002C48FFF7BFFCF860294B9B6E03F44053E0
:100C90001B0BFA6822FA03F3FB60254BDB6F03F0B2
:100CA00007030133FA68B2FBF3F3FB603BE0214832
:100CB000FFF7A8FCF8601E4B9B6E03F00303FA6875
:100CC00022FA03F3FB602EE01B48FFF79BFCF86061
:100CD00029E01948FFF796FCF860154B1B6F03F0ED
:100CE0000303FA6822FA03F3FB601CE01248FFF7E3
:100CF00089FCF8600E4B1B6F03F030031B09FA6888
:100D000022FA03F3FB600EE0FFF7EAFBF8600AE06B
:100D1000FFF7A0FBF86006E0FFF74AFDF86002E08D
:100D20000023FB6000BFFB6818461437BD4690BD2A
:100D300000800C400200180003001A0080B485B047
:100D400000AF78600123FB737B6803F00F03BB6087
:100D5000BB68013B062B00F2958001A252F823F0FC
:100D60007D0D0000B30D0000EF0D0000850E0000AA
:100D7000850E00002B0E0000510E0000464BDB6A72
:100D800003F47053B3F5805F09D0B3F5005F03D06F
:100D9000B3F5006F06D008E00223FB7308E00323DD
:100DA000FB7305E00423FB7302E00523FB7300BF24
:100DB0006BE0394B9B6A03F00303022B06D0032B35
:100DC00007D0012B08D10323FB730FE00223FB7331
:100DD0000CE00623FB7309E02F4B9B6A03F480337E
:100DE000002B02D00923FB7300E000BF4DE02A4B2B
:100DF0009B6A03F00C03082B06D00C2B07D0042BA6
:100E000008D10323FB730FE00223FB730CE00623DE
:100E1000FB7309E0204B9B6A03F48013002B02D084
:100E20000923FB7300E000BF2FE00723FB731A4B7D
:100E30001B6803F08053002B03D0B3F1805F03D015
:100E400023E00723FB7302E00823FB7300BF1CE0D1
:100E5000114BDB6A03F46033B3F5803F08D0B3F580
:100E6000003F08D0B3F5004F08D10823FB7308E01A
:100E70000223FB7305E00323FB7302E00123FB73F2
:100E800000BF02E00023FB7300BFFB7B1846143752
:100E9000BD465DF8047B704700800C4090B589B07A
:100EA00000AF78600B46FB700323FB610323FB76E6
:100EB00000233B617B6803F00F03FB60FB68013B91
:100EC000062B00F22E8101A252F823F0E90E000059
:100ED000B30F0000B30F0000231100002311000026
:100EE00091100000BB100000FB78023B072B00F2C2
:100EF0001A8101A252F823F0190F0000230F0000FD
:100F00002D0F0000810F00002711000027110000A5
:100F100027110000271100000423FB610023FB764A
:100F200033E00323FB610123FB762EE00223FB76F3
:100F30000223FB6100F0EEFC0446FFF7E5FB0346ED
:100F40009C4213D97B4A7B4B1B6843F0804343F0A0
:100F500060031360774B1B6C03F01003002B0ED063
:100F6000754808210122FFF71BFA0EE0714B714A08
:100F7000126822F0600242F020021A6005E004E0EC
:100F80000123FB610323FB7600BFFB7E1846012192
:100F9000012200F0D5F8FFF72BFB664BFA695A6285
:100FA00000F04AFA00F010FCB860B868FFF7C4FA25
:100FB000BCE0FB78013B082B00F2B78001A252F89D
:100FC00023F000BFE90F0000EF0F0000FF0F00004B
:100FD0002B1100002B1100000F1000002B1100003E
:100FE0002B1100004710000000237B6130E000203F
:100FF0000121012200F0A4F802237B6128E00120F6
:101000000121012200F09CF801237B6120E04B4884
:1010100004210122FFF7C4F903237B6100F0D4FB14
:10102000B860FFF771FB0246BB689A420AD241489A
:101030001E210122FFF7B4F93F4808210122FFF7E2
:10104000AFF905E004E000237B6101233B6100BFB1
:10105000FB68022B0DD1374A364B9B6A23F4803351
:1010600023F00303796919433B691B040B43936223
:101070005CE0304A2F4B9B6A23F4801323F00C036F
:101080007969890019433B691B050B4393624DE065
:10109000FB78072B02D0082B07D047E0254B254AC9
:1010A000126822F080521A6006E0224B214A126830
:1010B00042F080521A6000BF38E0FB78032B14D056
:1010C000082B22D0022B00D030E000200121012289
:1010D00000F036F8174B40225A6200BF154BDB6A0E
:1010E00003F48033002BF9D01AE001200121012202
:1010F00000F026F80F4B60225A6200BF0D4BDB6AEE
:1011000003F40033002BF9D00AE00A4B20225A6284
:1011100000BF084BDB6A03F40043002BF9D000BF8B
:1011200004E000BF02E000BF00E000BF2437BD467E
:1011300090BD00BF00800C4004800C4040800C40FB
:1011400080B586B000AF13460246FA710A46BA71FE
:101150007B71FB79052B4CD801A252F823F000BF1C
:10116000B1110000A31100008711000079110000E7
:1011700095110000F311000001233B610223FB6085
:1011800001237B611DE004233B610823FB600323F3
:101190007B6116E010233B612023FB6005237B610C
:1011A0000FE040233B618023FB6007237B6108E065
:1011B0004FF480733B614FF40073FB6009237B6144
:1011C00000BFBB79002B0ED00C4B3A691A627B79B9
:1011D000002B0BD000BF0A487969FFF7F7F80346E8
:1011E000002BF8D002E0054BFA681A6200F024F9EF
:1011F00000E000BF1837BD4680BD00BF00800C4036
:101200002C800C4080B500AF00F0DEFA80BD00BF3E
:1012100080B400AF034B0022C3F88420BD465DF8C4
:10122000047B704700800C4080B400AF044B45F64F
:101230000E02C3F88420BD465DF8047B704700BFF2
:1012400000800C4080B582B000AF384BD3F88430BA
:1012500003F001037B60FFF7E7FF00233B60344BA3
:101260001B6803F001033A6813433B60304B1B6873
:1012700003F010033A6813433B602D4B1B6803F0E7
:1012800040033A6813433B60294B1B6803F0040397
:101290003A6813433B60264B1B6803F480733A683B
:1012A00013433B60214B3A681A62214B1B6803F4DD
:1012B0007053B3F5805F06D0B3F5005F0ED0B3F581
:1012C000006F16D020E000BF184BDB6A03F08003EC
:1012D000002BF9D0154B03225A6215E000BF134BC7
:1012E000DB6A03F40073002BF9D0104B04225A621E
:1012F0000AE000BF0D4BDB6A03F00803002BF9D0B6
:101300000A4B02225A6200BF094B1B6803F001031B
:10131000002B02D1054B02221A627B68002B01D000
:10132000FFF776FF0837BD4680BD00BF00800C4048
:101330009C00002080B483B000AF174B1B699BB2A8
:1013400003F03F039BB21B02FB80134B9B699BB2D4
:1013500003F0F0039AB2FB881343FB800E4BDB696A
:1013600003F0F0031B099AB2FB881343FB80FB8850
:10137000B3F5827F03D3FB88B3F5017F01D101234D
:1013800000E0002303F00103DBB218460C37BD4632
:101390005DF8047B704700BFD0FF0FE080B586B0DA
:1013A00000AF0346FB711F4BDA6A1F4B1A601F4BDD
:1013B0001E4A126942F004021A61FFF7BBFF03469E
:1013C000FB75FB7D002B11D0194B1A68194B13408C
:1013D000FB60174BFA68C3F88020154B5B6823F05D
:1013E00046033B61124B3A69C3F8842030BFFB7D52
:1013F000002B05D00E4BFA681A600D4B3A695A6003
:10140000FB79002B02D0FFF71DFF07E0064B1B689E
:1014100003F48063002B01D1FFF7F4FE1837BD46BB
:1014200080BD00BF00800C409C00002000ED00E06B
:1014300000E100E09CF1FD0080B400AF034BDA6AEC
:10144000034B1A60BD465DF8047B704700800C407A
:101450009C00002080B485B000AFF860B9607A606D
:10146000FB681A68BB68DB431A407B681A43FB6859
:101470001A601437BD465DF8047B704780B483B0B2
:1014800000AF03463960FB71FB79002B0DD0FB796F
:10149000012B0AD0FB79022B07D0FB79032B04D058
:1014A000FB79042B01D0FB79052B0948FA793B68BD
:1014B000012101FA03F319461346DB0013449B0094
:1014C0000344103359600C37BD465DF8047B704708
:1014D0000060004080B483B000AF03463960FB7108
:1014E000FB79002B0DD0FB79012B0AD0FB79022B65
:1014F00007D0FB79032B04D0FB79042B01D0FB79B7
:10150000052B0948FA793B68012101FA03F31946D2
:101510001346DB0013449B000344103319600C375F
:10152000BD465DF8047B70470060004080B584B024
:1015300000AFB9607B600346FB731346BB73FB7B54
:10154000002B0DD0FB7B012B0AD0FB7B022B07D09D
:10155000FB7B032B04D0FB7B042B01D0FB7B052BF7
:10156000BB7B002B0DD07B68002B05D0FB7B184686
:10157000B968FFF7AFFF04E0FB7B1846B968FFF7D7
:101580007DFFBB68072B18D8FA7B1346DB0013449A
:101590009B00043303F1804303F5C043BA68920013
:1015A0000F2101FA02F21146B87BBA68920000FAE4
:1015B00002F21846FFF74EFF1DE0FA7B1346DB00F0
:1015C00013449B00083303F1804303F5C043BA681A
:1015D00002F18042083A92000F2101FA02F211460C
:1015E000B87BBA6802F18042083A920000FA02F22F
:1015F0001846FFF72FFFBB7B002B0DD17B68002B1C
:1016000005D0FB7B1846B968FFF764FF04E0FB7B5D
:101610001846B968FFF732FF1037BD4680BD00BFDE
:1016200080B487B000AFF860B9607A60FB6803F1FE
:101630000473DA00BB6813449B007B617B697A68A2
:101640001A601C37BD465DF8047B704780B485B0D6
:1016500000AF786039607B68012B05D83B6803F0E8
:101660007F43002B00D100BF7B68002B02D0012BF1
:1016700003D008E0064BFB6002E0064BFB6000BFB6
:10168000FB683A681A601437BD465DF8047B704702
:10169000080008400C00084080B582B000AF034647
:1016A000FB71FB79034800211A46FFF7B9FF0837A1
:1016B000BD4680BD0000084080B485B000AF7860B2
:1016C0007B681B78002B02D00123FB6001E0002324
:1016D000FB607B685B78002B03D0FB6843F0020360
:1016E000FB607B689B78002B03D0FB6843F004030E
:1016F000FB60044BFA681A601437BD465DF8047B42
:10170000704700BF0000084080B485B000AF78602B
:10171000194B5B69DBB203F00F03DBB29B00FB7379
:10172000154B1B6903F0C0039B09DAB2FB7B134323
:10173000FB737B68FA7B9A700F4B1B69DBB203F07B
:101740003F03DAB27B685A700B4B9B69DBB223F024
:101750000F03FB73084BDB6903F0F0031B09DAB2DC
:10176000FB7B1343FB737B68FA7B1A701437BD460F
:101770005DF8047B704700BFD0FF0FE0064880474C
:101780000649074A074B9A42BEBF51F8040B42F87C
:10179000040BF8E7FEF7CCFC2D1900008CAF00001D
:1017A0000000002080000020FEE700BF80B400AFF2
:1017B000044BDB6C1B0EDBB21846BD465DF8047BA8
:1017C000704700BFB081E00F80B582B000AF00F07D
:1017D00029F878600C4B1B6803F4E0339B0B013352
:1017E0007A68B2FBF3F37B60074B5B6803F00F038F
:1017F0007A6822FA03F37B60044B7A681A607B688C
:1018000018460837BD4680BD00800C40BC00002053
:1018100080B400AF024B1846BD465DF8047B7047AC
:10182000006CDC0280B582B000AF2F4BDB6A03F4A2
:101830007053B3F5805F0AD0B3F5005F03D0B3F502
:10184000006F08D00BE0294B1B687B6047E04FF42A
:1018500000437B6043E0264B1B687B603FE0224BEC
:10186000DB6803F4E063B3F5007F1BD0B3F5007FC2
:1018700005D8002B24D0B3F5807F16D02BE0B3F52C
:10188000806F09D0B3F5A06F03D0B3F5407F06D0C9
:1018900021E0184B7B6021E0174B7B601EE0174B6B
:1018A0007B601BE0164B7B6018E0FFF77FFF034671
:1018B000122B02D9134B7B6010E0134B7B600DE0C1
:1018C000FFF774FF0346122B02D9104B7B6005E033
:1018D0000F4B7B6002E000237B6000BF00BF7B6892
:1018E00018460837BD4680BD00800C40040000202B
:1018F00000000020003FAB01406F4001809FD500F9
:10190000C0D8A70040B56400C0CF6A00804F120065
:1019100040420F0080B400AF034B1B681846BD4621
:101920005DF8047B704700BF0000002080B400AF6A
:10193000BD465DF8047B704780B400AF4FF40043B0
:101940001846BD465DF8047B704700BF80B400AF09
:101950004FF47A731846BD465DF8047B704700BFAC
:1019600080B400AF034B1B681846BD465DF8047B8E
:10197000704700BF0400002003685A004CBF43F0CA
:10198000004323F000431844704700BF2DE9F04F97
:10199000064683B0914621B301390191884600275C
:1019A00007EB080404EBD4746410E50006EB050BA8
:1019B0005846FFF7E1FF019B8246A34205F108006C
:1019C000304419D0FFF7D8FFCA4500F1FF3004D9E1
:1019D000BC420BD004F1FF38E2E7484502D2671C55
:1019E000DEE78B46584603B0BDE8F08F4FF0000BA2
:1019F000584603B0BDE8F08FCA45E9D8F2E700BF0A
:101A0000012807D0022807D0044B00280CBF184635
:101A10000020704702487047024870473D2100008F
:101A2000452100004D21000030B5274B83B004460E
:101A30008D1E002B42D0284601A9AFF3008003463B
:101A400023B32A460199FFF7A1FF054618B3FFF714
:101A500093FF6B68A064012B12D0002B05F10400EA
:101A600028DBFFF789FF0023E06423650368002B70
:101A700016DBFFF781FF00232061184603B030BD5D
:101A8000002323610523184603B030BD23610923D9
:101A9000184603B030BD09232061184603B030BD9D
:101AA000C3F30360FFF7ACFF0028206114BF0023DD
:101AB0000923E2E70123E0642365D7E7034B0448E9
:101AC0001B1ADB100193BCE7000000008CAF000084
:101AD0008CAE0000036810B5DA07044606D49B07F5
:101AE00000F1480009D500F06FFC2368590709D5BB
:101AF0001A070ED5DB0613D510BD00F05DFC236878
:101B00005907F5D404F1D00000F066FC23681A07E9
:101B1000F0D404F5A87000F067FC2368DB06EBD472
:101B200004F5E870BDE8104000F0A2BC03680BB1FA
:101B3000184470471846704709207047704700BF27
:101B400070B504460D4608E02A6C236962610120E5
:101B500021462A469847082808D12046296CFFF7D5
:101B600063FF06460028EFD006F0D6FF0728FBD11A
:101B70003046296CFFF7E2FF281D00F011FC00BF82
:101B80002DE9F047ADF5727D0C1D03AE05461746F5
:101B90000FCC0FC60FCC0FC60FCC0FC694E80F00AA
:101BA00002AC4FF0000ED5F80C80D5F8189086E8FE
:101BB0000F002846216CC4F800E0FFF735FF002F26
:101BC000064614BF0A27092786B1A06B2A468DE86E
:101BD000100247F0100160642B460120C047002826
:101BE0002FD130460DF5727DBDE8F087236C21467C
:101BF0006B614FF4F0727AA807F045F82B6929461B
:101C00007AAA38469847889B82468DE81002394662
:101C1000636401202A462B46C04790B920467AA922
:101C20004FF4F07207F02FF8BAF1080F06D12846EA
:101C3000216CFFF7F9FE09270646C5E7BAF1070F41
:101C400004D009200DF5727DBDE8F0873046216C87
:101C5000FFF774FF03A800F0A3FB00BF406C7047C0
:101C6000F0B5CB6BF9B00B640E1D01AD0F46044609
:101C70000FCE0FC50FCE0FC50FCE0FC596E80F00C4
:101C80004FF0FF3685E80F00009606E023692146F5
:101C90006A4698470828054608D120461099FFF75C
:101CA000C3FE0028F2D0092079B0F0BD6846FFF7E6
:101CB00011FF062DF7D120463946FFF741FF00BF3F
:101CC00030B4DD6BC160826119461D64002230BCF6
:101CD000FFF756BF70B54369C66804460D460B64EE
:101CE00026B10122FFF74CFF06F016FF03692146DB
:101CF00002202A469847072807D0082803D1204603
:101D00002946FFF71DFF06F007FF3046296CFFF755
:101D100015FF281D00F044FBC26810B432B1CC6B33
:101D200000220C645DF8044BFFF72ABF5DF8044BFA
:101D300096E700BF704700BF08B5836813B101463E
:101D40000120984708BD00BF10B4042909D8DFE876
:101D500001F007030803030001205DF8044B7047FE
:101D60001BB102205DF8044B70470F2AF9D800EB35
:101D7000820252681846019B1A60EEE700B585B0F2
:101D80000A4603AB002100930B46FFF7DDFF0398E3
:101D900005B05DF804FB00BF10B4042909D8DFE8E2
:101DA00001F007030803030001205DF8044B7047AE
:101DB0001BB102205DF8044B70470F2AF9D8019C33
:101DC00000EB8202216818465160EEE710B584B03E
:101DD00004AB43F8042D0C460021009322460B4629
:101DE000FFF7DAFF04B010BDF0B5D36BADF50F7D92
:101DF0001364151D17AC07460E460FCD0FC40FCD4B
:101E00000FC40FCD0FC495E80F004FF0FF3584E8E5
:101E10000F00169510E016A8FFF7D8FF314616A858
:101E2000B847694616AA78B9049B08209847052840
:101E300004460AD0092807D026996846FFF7F4FD22
:101E40006A460C210028E6D0092416A8FFF742FEB6
:101E500020460DF50F7DF0BD2DE9F04FCE6C0C4600
:101E600031688BB004361D4690460791089600F005
:101E70000309002B40F089800902032307918DF8A4
:101E800025508DF82430236DB9F1020F08BFA66BE1
:101E900013F0010342D100F00800C0B20390029396
:101EA0003768002F3CD0022D6BD03788B6F802A0DF
:101EB0000436A36C2AF0010B40460F219B44FFF728
:101EC0005DFF834536D827F001039B440AF0010AE1
:101ED00007F00107584547EA4A072CBF00200120B8
:101EE000012F31D060D3022F20D1336823F000417D
:101EF0000191B9F1000F40F0858030B1039A002ABA
:101F000000F08D80002900F0B080002BC0F28580A9
:101F1000019B03F1010A06EB8A06C1E70021029149
:101F2000022D49DDFFF708FE00284BD009200BB039
:101F3000BDE8F08F0AF0010A07F0010747EA4A07F7
:101F4000012F4FF00000CDD1B9F1000F41D1B0B158
:101F500096E80C00D70F9A1CE8D004F15801013321
:101F6000069100F0AD80301DFFF7E0FD3A460146D6
:101F700006AB204600F0ACFC002840F0CF800836CD
:101F80008EE7D6F804A0083693E7022B3FF77BAF25
:101F90000B0CDFB2090402228DF8253006EB870610
:101FA00007918DF824206EE7B9F1000F02D00028C8
:101FB00040F09080043673E7404607A900F0F0FA3D
:101FC0000028B3D1029A002A59D108200BB0BDE8ED
:101FD000F08F40460D21276AFFF7D0FE8742CED111
:101FE000A36A9E42CBD13046FFF7C6FC0F210246C2
:101FF0004046FFF7EBFE404622460021FFF7E6FE93
:10200000072094E740460D21276AFFF7B7FE874275
:1020100045D03368002BBFF67BAF043678E70199D3
:1020200019B304F1580CCDF810900595371DDDF863
:102030000CB0DDF80490654602E0CA4515D0D346E1
:1020400038460695FFF772FD0022014606AB204692
:1020500000F03EFC0BF1010A04370028EDD0019B93
:10206000DDF810905B45059DD3D140460D21FFF76B
:1020700085FE069B2062A6626362062057E70F2159
:102080004046FFF77BFE0E2102464046FFF79EFECC
:1020900040460F21284AFFF799FE072047E7A36A29
:1020A0009E42B6D1042201990027B318A162E762CB
:1020B000226363633368BB421FDB0122029227E77E
:1020C00040460D21FFF75AFE2062069B6362A6621E
:1020D00006202CE73046FFF74FFC04360546A66382
:1020E000204600F053FC00283FF420AF40462A462B
:1020F0000F21FFF76BFE072019E7481C06EB800055
:10210000FFF73AFC0F2102464046FFF75FFE4046CC
:1021100039462246FFF75AFE072008E707460D21F9
:102120004046FFF72BFE022F2062CED1069A2346AF
:1021300043F82C2F6362CAE7C33100000023FFF786
:102140008BBE00BF0123FFF787BE00BF0223FFF74E
:1021500083BE00BF2DE9F0410446C4B004290BD86A
:10216000DFE801F059030A300E00012B4FEA124557
:1021700096B266D0052B6BD0022044B0BDE8F0814A
:10218000002BF9D1102AF7D82368D90600F1D380A3
:1021900022AE3046019200F075F9A56B019A00233A
:1021A000012000FA03F1114203D02968043546F8F2
:1021B00023100133042BF4D13046A56300F058F905
:1021C0000020DAE7032BD7D1150C97B27B19102B1F
:1021D000D2D823681E0700F1BF8022AE304600F03F
:1021E00025F9D4F838E07F0006EBC5007B1E724667
:1021F0005FB1CEEB0000AEF1040252F8041F013BC8
:102200005D1C8150F9D10EEB87023046A26300F0CD
:10221000EBF80020B1E7002BAED1A56B96B2012000
:1022200000FA03F1314204D02F6804EB8301043536
:102230004F600133102BF3D112F4005075D1A56318
:102240009BE77219102A97D80F2D95D8002708E020
:102250007719202F90D80F2D69D9374646B30F2D07
:1022600011D82268D0070ED522F00101052B21607C
:1022700000F08C8022F00302204640F8482B0193A6
:1022800000F09EF8019B17B1226851076CD4012B16
:1022900074D00F2D04D822A8019300F099F8019B67
:1022A00037B102A8019300F09BF8019BC5F110061D
:1022B000D4F83880002EC44612DD22AA4FEA460C1C
:1022C00002EBC506C8EB06060CF1FF31A8F10402CB
:1022D00052F8040F0139B050481CF9D108EB8C0CAE
:1022E000B7B144AA102D2CBF2846102002EBC00025
:1022F0004FEA4708A0F5C47008F1FF32614651F873
:10230000046B013A40F8046B561CF8D10CEB880CB6
:10231000012B1AD00F2DC4F838C002D822A800F023
:1023200053F817B102A800F057F8002025E7102F46
:102330008CD9103F93E723F01003236004F5E87075
:10234000019200F09FF8019A22E70CF10403A363C5
:1023500022A800F031F8E8E723F00803236004F531
:10236000A87000F063F838E722F00402204640F835
:10237000D02B019300F034F8019B88E722A8019349
:1023800000F01EF8019B002F90D191E741F002016F
:10239000204640F8481B019300F01AF8019B72E7B1
:1023A00000F1340191E838009C46A6464CF8045DE3
:1023B00090E8FF0FE54600BD90EC210B704700BF91
:1023C00080EC210B704700BF90EC200B704700BFE2
:1023D00080EC200B704700BFD0EC200B704700BF93
:1023E000C0EC200B704700BFF0EC0201F0EC0211D2
:1023F000F0EC0221F0EC0231F0EC0241F0EC025181
:10240000F0EC0261F0EC0271F0EC0281F0EC029170
:10241000F0EC02A1F0EC02B1F0EC02C1F0EC02D160
:10242000F0EC02E1F0EC02F1704700BFE0EC0201D9
:10243000E0EC0211E0EC0221E0EC0231E0EC0241C0
:10244000E0EC0251E0EC0261E0EC0271E0EC0281B0
:10245000E0EC0291E0EC02A1E0EC02B1E0EC02C1A0
:10246000E0EC02D1E0EC02E1E0EC02F1704700BFE9
:10247000B0FC0181B0FC0191B0FC01A1B0FC01B144
:10248000704700BFA0FC0181A0FC0191A0FC01A14C
:10249000A0FC01B1704700BFEC4600B52DE900502B
:1024A0002DE9FF1F4FF000032DE90C0001A9FFF7F4
:1024B000D7FBDDF840E012B0704700BFEC4600B536
:1024C0002DE900502DE9FF1F4FF000032DE90C000E
:1024D00001A9FFF7FFFBDDF840E012B0704700BF35
:1024E000EC4600B52DE900502DE9FF1F4FF0000329
:1024F0002DE90C0001A9FFF70FFCDDF840E012B058
:10250000704700BFEC4600B52DE900502DE9FF1FD4
:102510004FF000032DE90C0001ABFFF7D1FBDDF814
:1025200040E012B0704700BFEC4600B52DE9005006
:102530002DE9FF1F4FF000032DE90C0001AAFFF762
:1025400053FCDDF840E012B0704700BF037A1BB9BE
:10255000437A43B9B02070470268013B037213020B
:102560000360100E70474268013B4372111D1268F0
:1025700003230372130241600360100E704700BF13
:1025800000B585B003AB002100930C220B46FFF78A
:10259000DBFB039805B05DF804FB00BFFFF7F0BF5D
:1025A0002DE9F043064685B00D464FF00008284659
:1025B000FFF7CCFFB028044600F0AC8020F07F028B
:1025C00012F0FF0120D000F0F002802A73D0902A90
:1025D00036D0A02A42D0B02A56D0C02A00F082803D
:1025E00000F0F803D02B0BD100F00704621C42F47A
:1025F0000022304601210523FFF7ACFD0028D6D08C
:10260000092005B0BDE8F08303AF4FEA80090B460F
:10261000009730460D22FFF797FB5FFA89F9039B7D
:1026200009F1040960064CBFC9EB03034B44039353
:10263000002100970B4630460D22FFF7ADFBB6E7B1
:1026400000F00D030D2BDBD003AF002100F00F02D3
:1026500000970B463046FFF777FBE9E7C2434FF49C
:102660007F6302F0070243FA02F2010702EA030263
:102670004FF0000148BF42F480420B463046FFF75E
:1026800069FD0028BCD192E7B12848D0B22851D0CA
:10269000B3287DD000F0FC03B42BB1D000F00702CA
:1026A0000132012142F400220B463046FFF752FD71
:1026B0000028A5D17BE72846FFF748FF24022043E6
:1026C000B0F5004F9CD004010021A2B20B46304669
:1026D000FFF740FD002893D114F4004F18BF4FF0CE
:1026E000010864E7C6285FD0C72869D000F0F80366
:1026F000C02B78D0C82800F08E80C92880D1284609
:10270000FFF724FF00F00F03013300F0F00243EA6B
:1027100002326EE7B8F1000F6CD0002071E7284656
:10272000FFF714FF024600283FF46AAF10F0F001F3
:10273000BAD065E7002103AF0D220B460097304663
:10274000FFF702FB2846FFF701FF02064FF00204E5
:102750000DD500F07F0000FA04F2039B28461344D5
:102760000393FFF7F3FE030604F10704F1D400F02E
:102770007F0000FA04F4039B002103F501731C445D
:1027800000970B4630460D220394FFF705FB0EE73A
:102790002846FFF7DBFE00F00F03013300F0F002E4
:1027A000012143EA02327FE72846FFF7CFFE00F01F
:1027B0000F03013300F0F002032143EA023273E712
:1027C0002846FFF7C3FE024600283FF419AF10F079
:1027D000F0037FF415AF30460421FFF7BBFC00285F
:1027E0007FF40EAFE3E600F00F020132032142F462
:1027F000202259E703AC41460E224346009430465E
:10280000FFF7A2FA0094304641460F224346FFF7F5
:10281000C3FA4046F5E62846FFF798FE00F0F002BE
:1028200000F00F031032013343EA0232E1E600BF49
:1028300010B5C36C84B003225C688DF80C20DA7983
:1028400008460833240201A901948DF80D20029353
:10285000FFF7A6FE04B010BD08B5FFF79FFE806C21
:1028600008BD00BF08B5FFF799FEC36CDA7903EB2A
:102870008200083008BD00BF08B506F04DF900BF62
:1028800008B506F049F900BF1EB400F09CF81EBC64
:10289000FFF714FE0378472B17D143784E2B14D142
:1028A0008378552B11D1C378432B0ED10379432B59
:1028B0000BD143792B2B08D183792B2B05D1C079F0
:1028C00001288CBF002001207047002070470000C5
:1028D0002DE9F341984603780446472B0F46C67905
:1028E00014D143784E2B11D18378552B0ED1C37858
:1028F000432B0BD10379462B08D143794F2B05D1BC
:102900008379522B02D10EB9012205E02046FFF750
:10291000C1FF00282FD000220023002101917AB9A5
:1029200083B9012E0ABF54F8203CA4F12003783B60
:10293000012E0CBF54F8204C58341D68019402E05D
:10294000104D00E0104D2B6828469B68984720B139
:10295000019B02241B68019300E001243B68384678
:102960001E69294601AA0123B04738B1019B2046C0
:10297000C8F8003002E002460123CEE702B0BDE80D
:10298000F08100BF989C0000C49C000070B5044614
:1029900000F032F805462046A4F12006FFF77AFF42
:1029A00050B154F8043C0133012B44F8043C08D1E5
:1029B000AB6844F8083C03E0AB680BB100F018FBCF
:1029C000AE60012070BD70B500F016F88468054651
:1029D0000CB900F00DFB04F120063046FFF75AFF5A
:1029E00038B1E369013BE36123B9A269AA60A3613D
:1029F00000E0A860304670BD00487047A00000208D
:102A000008B106F029B970477FB510230293036817
:102A1000002415469E6900946B468DF8044003948B
:102A20001268B0479DF8043003F00603062B05BF7B
:102A3000009B012020462B6004B070BD009890429E
:102A400014BF01200620704710B5034B04460360F5
:102A500000F0E2FA204610BDF89C000010B50446D4
:102A6000FFF7F2FF2046FFF7CBFF204610BD38B539
:102A700015461C4600F0E6FA28B10823E360062359
:102A800025602371012038BDF8B505460C46164671
:102A90001F4600F0D7FA40B9032F07D82368204615
:102AA0005B69294632469847F8BD0120F8BD2DE9FB
:102AB000F041069E1546089A074696429846099C9C
:102AC00003D1079900F0BEFA48B93846414600F0F4
:102AD000B9FA28B1012326602571A37100E0657160
:102AE0000020BDE8F08130B500231A4610F8014BF4
:102AF00004F07F059540240643EA050302F107022E
:102B0000F4D40B6030BD30B500231A4610F8014BE9
:102B100004F07F0595402B43250602F10702F5D40A
:102B20001F2A06D8640604D54FF0FF3404FA02F2D7
:102B300013430B6030BD50282DE9F743814688468A
:102B400016461F4605D1D01C20F0030050F8044B58
:102B500034E000F00F030C2B23D8DFE803F01A0752
:102B6000121A1E222222220C161A1E00304601A919
:102B7000FFF7B9FF03E0304601A9FFF7C4FF019C4E
:102B800011E0304630F8024B0DE0304630F9024B90
:102B900009E0304650F8044B05E0346806F10800BF
:102BA00001E005F0B9FF4CB109F07003102B18BF1C
:102BB0004646344419F0800F18BF24683C6003B0C7
:102BC000BDE8F08308B50346FF2B08461CD003F090
:102BD0007003202B0ED003D8B3B1102B12D113E009
:102BE000402B0BD0502B0FD0302B0BD1BDE8084021
:102BF000FFF742BEBDE80840FFF742BEBDE808400F
:102C0000FFF72ABE05F088FF002008BD2DE9F0413E
:102C100007460C460846394616461D46FFF7D2FFC2
:102C2000324601462B462046BDE8F041FFF783BF00
:102C300073B50D461446064610B1FFF70DFEFFE7CB
:102C4000206029786A1CFF2905D03046231DFFF734
:102C5000DDFF024600E060601378501CFF2B2375F7
:102C600007D01023237501A9FFF73DFF019B034403
:102C700000E00023E360037801A963750130FFF7EA
:102C800032FF019B0344236102B070BD1FB50A46A9
:102C900003AB002100930B46FFF756F8039805B0ED
:102CA0005DF804FB2DE9F04F002391B0049300F090
:102CB0000303012B06460C46154603D028D3022BEE
:102CC0001DD0DBE0030725D40F6A10460D21FFF766
:102CD000DDFF87421ED106231DE0079A13449F4261
:102CE0004ED2089B002B6ED00B9A03EB020809987A
:102CF00010B10E9B01381844B8F1000F69D120467D
:102D00002946FFF795FD08B1092069E1082067E130
:102D1000012300E0022306F0080943EA090910AB89
:102D200043F82C4D0021009328460C220B46FFF758
:102D300033F8B9F1060F0AD1D4F83080A66AB8F199
:102D4000000FD4F82CA00CBF01270327D3E028469E
:102D5000FFF788FD82460028D1D00AAA51462846AE
:102D6000FFF766FF294606469DF83C00FFF72AFF5D
:102D70000F210C902846FFF789FF20F00100471E25
:102D80000E9B9E4221D232469DF83D1006AB00209C
:102D9000FFF73CFF9DF83D10024607AB0020FFF710
:102DA00035FF08AB02469DF83D100020FFF72EFFCF
:102DB00009A9FFF798FE0A9B069A064613449F420C
:102DC0008BD20E9EDCE7984691E74FF00008012772
:102DD00004E1002800F0018119F00801039111D0ED
:102DE000472323704E2363705523A3704323E3705E
:102DF000462323714F2363715223A3710023E37190
:102E0000002719E0E379012B0CBF54F8203C04F1B2
:102E100058030493F4E704230D9E0C9902FB1362FC
:102E200009ABFFF788FE099900295FD064BB0898B9
:102E3000002800F0CC80584407A9FFF764FE08A9D9
:102E40008346FFF760FE079A002A4DD023DD9DF8E8
:102E50003C00FF2814D000F00703042B0ED801A17A
:102E600051F823F0172E00007D2E0000852E000063
:102E7000172E0000792E00000823CDE705F04CFE48
:102E80000023C9E70223C7E72046002204ABFFF76F
:102E90001FFD58BBCBE70D9B02F1010EBCB1039A9D
:102EA000AAB9049AA3EB8E0E0692AEF1040656F868
:102EB000041F41B120463144002206ABFFF708FD54
:102EC0000028F4D0012181F00101C9B209E06FF0BE
:102ED000030C0CFB0EFE53F80E10D1F1010138BFAC
:102EE00000210029A3D001E00127A0E7079E0327C6
:102EF00019F0010F5AD119F0080907D0012F01D19B
:102F000000F076F8002E24DA00F07EF8012F02D1CE
:102F1000204600F047F9002E1BDA0AAA514628463F
:102F2000FFF786FE9DF83C002946FFF74BFE6FF049
:102F3000030206FB02220D9B0C901A444B4652F8EA
:102F4000231009B10133FAE7A3620423E06223638B
:102F5000626310AB002143F8244D0A4600932846D3
:102F60000B46FEF719FF10AB43F8206D002101223C
:102F7000009328460B46FEF70FFF0F212846FFF768
:102F800085FE00F0010010AB40EA080043F81C0D7C
:102F90000021009328460F220B46FEF7FDFE022F6C
:102FA00002D12046FFF7F2FC072019E0022F3FF480
:102FB000A6AE28460D21049FFFF768FE67622062D7
:102FC000A662C4F82CA0C4F83080062008E0002FC8
:102FD0003FF495AE064602278AE70227002687E7D8
:102FE00011B0BDE8F08F00BF08B5804705F094FD33
:102FF00008B5024B1868FFF7F7FF00BF0C00002070
:1030000008B58047FFF7F4FF08B5024B1868FFF7D3
:10301000F7FF00BF08000020014B0360704700BFAE
:10302000709D00000020704700207047002070470E
:1030300010B5034B04460360FFF7E2FC204610BDC9
:10304000709D0000814208B50ED0406803782A2B9D
:1030500001D1002008BD49680B782A2B08BF013137
:1030600005F03CFF0028F4D1012008BDFFF7EABFBE
:1030700010B5034B04460360FFF7E6FC204610BD85
:10308000909D000010B50446FFF7F2FF2046FFF7C1
:10309000B7FC204610BD2DE9F341089C0746944239
:1030A000884616461D4605D11946FFF7CBFF08B1E5
:1030B000062007E0B8684146036800941C6A32465F
:1030C0002B46A04702B0BDE8F0812DE9F04F0E4637
:1030D00085B019468346904699460E9D109F119CD7
:1030E000FFF7B0FF824680B1002E256084F804808F
:1030F00006DB3544AF4214BF01270627A7710CE059
:1031000002360AD10123A37107E0BD4207D1584618
:103110000F99FFF797FF80B901E0002010E0DBF87E
:1031200008000F9A03680192009502970394DC69E6
:10313000314642464B46A04702E084F8058050469F
:1031400005B0BDE8F08FF8B504460F4616461D469B
:10315000FFF78DFC38B9A068394604683246A46987
:103160002B46A047F8BD0120F8BD0378472B17D1A7
:1031700043784E2B14D18378552B11D1C378432B30
:103180000ED10379432B0BD143792B2B08D18379B3
:103190002B2B05D1C07901288CBF0020012070475E
:1031A0000020704710B5044648B100F03BF82046B7
:1031B000FFF7DBFF18B154F8140CFFF715FFFFF70A
:1031C00017FF70B50646FFF7D0FF18B156F8184C38
:1031D000002501E004460125304600F023F80DB13A
:1031E000FFF712FF2046FFF70BFF0378472B17D19D
:1031F00043784E2B14D18378552B11D1C378432BB0
:103200000ED10379432B0BD143792B2B08D1837932
:103210002B2B05D1C07901288CBF002001207047DD
:1032200000207047F8B50446FFF7E6FB0546066840
:103230002046A4F12007FFF7D8FF20B90EB1FFF711
:10324000D7FE2F6015E054F80C3C2046002BB4BF8D
:10325000C3F10103013344F80C3C6B68B74203F13E
:10326000FF336B601CBF44F8106C2F60666AFEF77A
:1032700061FD3046F8BD00001F4BF7B51A781F4CB2
:1032800012B123681E4832E001221A7000F040F8A3
:1032900000282AD0456800212B784FF0FF322A2BD6
:1032A00008BF013502AB43F8042D28460A4605F055
:1032B000C3FB23680646D968124805F09DFC019BB4
:1032C0000E4F13B93B68304601E03B682846D96889
:1032D00005F092FC23680C48D96805F08DFC019B31
:1032E00043B9304605F0B8FC04E023680748D968C4
:1032F00005F082FC05F010FCAC00002070000020FE
:10330000E99D0000079E0000389E00003B9E0000E3
:1033100008B5FFF771FB006830B190F82730012B3A
:1033200004BF00687838006808BD000070B44C1E07
:103330004A2C2CD8DFE804F03C3C3C3C2B2B2B2BBC
:1033400026263C2626262626262626262626262B02
:1033500027272727272727273C26262626262B26EA
:10336000273D3C2B3C27273D2B2B26263C3C3C3C39
:103370003C263C3C263C2B2B2626262B2B2B26267C
:10338000263C3C00CAB144698569AC4202DB00209E
:1033900070BC704704EB440506690134AD0044611C
:1033A00074190CD071556260A360204670BC7047E0
:1033B0001AB1002BE7D11846EAE71046E8E72046A5
:1033C000E6E700BF30B443698469A34209DA03EB3E
:1033D000430405690133A40043612B1901D001B1F5
:1033E00012B9002030BC70470020285559609A60FF
:1033F000184630BC704700BF2DE9F041C56804464F
:10340000884617462B780E4617E0562B22D04B2BBA
:103410002DD1236B0135002F03F10603E5602363F3
:103420000CBF1B211E21002213462046FFF77EFF02
:103430003060D0B1E568061D2B78722BE5D1236B87
:103440000135002F03F10903E56023630CBF192147
:103450001C21E8E7236B0135002F03F10903E56028
:1034600023630CBF1A211D21DDE7BDE8F081BFB940
:10347000462B15D1464513D01D241E201C2108E0E3
:103480001B2A10D0192A00D1197003F104084645EF
:1034900006D0D8F800301A781A2AF1D11C70F4E757
:1034A0003046BDE8F0811870EFE700BF10B4C46883
:1034B0000A462378522B10D04F2B03D008465DF8D4
:1034C000044B7047036B2021033303630134C46052
:1034D00000235DF8044BFFF729BF036B1F21023364
:1034E0000363F3E72DE9F041C268804614780F4684
:1034F0002E2C2BD013462E2C17D15C78303CE4B206
:10350000092C12D89C78981CA4F13001C9B2092961
:103510001AD8DD1C2C782B46A4F13006F6B2092E01
:1035200005F10105F6D92E2CE7D01146C8F80C306C
:103530009A1A4046FFF746FF3A4603464B2140465B
:10354000BDE8F041FFF7F2BE0346D4E75378A3F19C
:103550006101C9B219290CD8911C0C780B46A4F151
:103560006100C0B2192801F10101F6D95F2CF4D035
:10357000C1E75F2BBED1EFE72DE9F003C2681378F6
:10358000532B03D00020BDE8F0037047531CC360E9
:103590005378B3B1931CC36053785F2B53D100248D
:1035A000036A9C42EED2836AC2690133836252F895
:1035B0002400BDE8F0037047A3F14102D2B2192AFA
:1035C00046D9826812076AD400296AD13F4A02F1BB
:1035D000C40502E01C32AA42D4D014789C42F9D12E
:1035E0005569002D6BD043698469D2F81880A342D5
:1035F00063DA03EB4307D0F810C0BF0001331CEBC4
:103600000706436160D04FF018090CF80790374661
:103610007560C6F80880C76200294BD0D56812696A
:10362000016BA34211440163ACDA03EB430104696B
:10363000013389004361631844D018206054184650
:103640005D609A609FE7A3F13005EAB2092AB3D81A
:10365000002212E002EBC20403EB8403A3F1300466
:10366000A2428FD8C16822460B784D1C1BB1C560A1
:103670000B785F2B11D0A3F13005E9B2A3F141041F
:103680000929E4B2E6D9192C3FF67CAF02EBC2045B
:1036900003EB8403A3F13704E2E7013480E701215F
:1036A00094E7C26811784339C9B201298CBF00215F
:1036B00001218BE755689268B2E70027ABE7846980
:1036C0004369A9E718465EE73746A4E76C9E000009
:1036D000D0F8003170B5FF2B04460D4606D05A1CB9
:1036E000C4F80021E55484F8045170BD0026194641
:1036F000D0F80C21D0F8083180F8FF609847D4F852
:10370000202133460132C4F820210122C4F80021CF
:10371000E55484F8045170BD30B40268044613784F
:103720006E2B1AD00025A3F13002D2B2092A19D883
:1037300022680020013200EB8001226003EB41018E
:1037400012F8013BA1F13000A3F13001C9B20929FF
:10375000F1D905B1404230BC7047531C0360537827
:103760000125E0E70020F4E74369826910B5934240
:1037700013DA03EB43020169920001338C184361B1
:1037800008D040238B540C30FFF7C6FF23466060FF
:10379000184610BD2346184610BD0023184610BD1C
:1037A00010B5C36804461A785F2A0BD06E2A06D07B
:1037B0000C30FFF7B1FFE3681A785F2A06D04FF0AC
:1037C000FF3010BD00200133E36010BD0130FAE787
:1037D00038B5C36804461A78542A01D0002038BD91
:1037E0000133C360FFF7DCFF051EF7DBA16A6369E5
:1037F000A26901319342A162F0DA03EB430221692D
:103800000133920063618B18E8D005248C545D600D
:10381000184638BD08B5C3681A785F2A01D0012060
:1038200008BD013340F80C3FFFF776FFC043C00FDF
:1038300008BD00BF70B504460C30FFF76DFF061ED3
:1038400032DDE56863685B1B9E422FDCA268AB1922
:103850005207E36015D4092E0CDD284614490822CE
:1038600005F002FA30B92B7A2E2B10D05F2B0ED038
:10387000242B0CD0294632462046FFF7A3FDE062F8
:1038800070BDAA5D242A04BF0133E360E3E76B7ACD
:103890004E2BEFD1236B204616339E1B2663054922
:1038A0001522FFF78FFDEAE7002070BD0020E6E754
:1038B000A4A50000B0A5000038B5044629B9C36826
:1038C0001A7832B15A1CC2601978682912D0762948
:1038D00001D0002038BD04F10C052846FFF71CFF7D
:1038E000E3681A785F2AF4D10133E3602846FFF7D2
:1038F00013FF03E004F10C00FFF70EFFE3681A78F2
:103900005F2AE6D10133E360012038BDD0F81031E1
:103910000246C3B15A680B68906870B102782F2ACA
:103920000DD1002B04DC09E002782F2A07D143B126
:103930008068013B0028F7D17047704701D0002014
:1039400070474068704701211846C2F81811704747
:1039500038B50C46054691B323784A2B27D8DFE8C3
:1039600003F02E26262626302E2B2B26262626262C
:10397000262626262626262626262E2626262626DF
:103980002626262626262626262E262626262626CF
:103990002626262E2B2626262626262626262626BA
:1039A000262E262626262E262E26262E2E00284693
:1039B0006168FFF7CDFF18B9A468002CCCD10020B6
:1039C00038BD2846211DFFF7A1FF0028F7D0037856
:1039D0002F2BF4D138BD00BFF0B553689468013384
:1039E0000B44A34283B015460E46074613D8EC6835
:1039F0000CB103B0F0BD95E80900324639461844D1
:103A000005F041F995E80C003244D4546B681E442B
:103A10006E6003B0F0BDD268002AEAD11CB9022B57
:103A20004FF0020402D96400A342FCD82868214662
:103A300005F0D2F9034610B12860AC60D7E72868DA
:103A4000019305F009F9019B01222B606B60AB60CB
:103A5000EA60CEE72DE9F041C36805461A784C2AA2
:103A600002D00020BDE8F0815A1CC26059785F295D
:103A70003AD05A290DD10132EA602846002100F0DF
:103A8000F9FDEA681378452BEBD10132EA60BDE815
:103A9000F08100F005FA07460028E2D00378272BD2
:103AA00033D0E9680B786E2B28D04FF03B08452BBC
:103AB00034D0002BD5D04B1C01E0002CD1D0EB60D2
:103AC0001E4613F8014B452CF7D1721A2846FFF712
:103AD00079FC3A46034641462846FFF727FCEA6848
:103AE0001378452BBDD1D0E79A1CC2609B785A2B26
:103AF000C1D0452B4FF00000B3D1C6E74A1CEA60A5
:103B00004B784FF03C081146D1E743681A7C002AF5
:103B1000C7D05A682B6B9B1A2B63C2E70022D5E7EC
:103B2000F0B5C16883B00B780446493BDBB2012B8A
:103B3000C76A1ED84A1CC2604B78452B45D000216D
:103B400002AE46F8041D493B0F2B35D8DFE803F0E1
:103B50002F2F34143434343434343434343434087B
:103B60000132E260204601F077FAE3681A78452ACC
:103B700027D0002003B0F0BD2046FFF76BFF0546BD
:103B800020462F212A460023002DF2D0FFF7CEFB3E
:103B9000306000F108060028EBD0E2681378452B6E
:103BA000D1D101980132E260E76203B0F0BD204656
:103BB000FFF7B6FF0546E3E7204600F071F905463A
:103BC000DEE70133E3600546DAE702310022C16037
:103BD00013462F2103B0BDE8F040FFF7A7BB00BF9D
:103BE0002DE9F041C26882B0137805464C3B0E2B9C
:103BF0006DD8DFE803F02C6C316C6C6C6C176C2C9E
:103C00006C6C6C6C080001320021C26000F032FD67
:103C1000EB6806461978452900F0D180002002B0F3
:103C2000BDE8F0815378742B69D00021FFF7A4FC24
:103C3000EB6804461B78492B50D12846FFF770FFEC
:103C40002246034604212846FFF770FB01E001F0FD
:103C5000C3F802B0BDE8F0810132C26001A90122BF
:103C6000FFF7CAFB07460028D8D028460021FFF7F7
:103C70001DFCEB6880461C780026002C00F08E802E
:103C8000442C00F08280A4F13002D2B2092A5CD91F
:103C9000A4F16102D2B2192A57D9432C55D0552C20
:103CA00053D04C2C51D0532C00F08480492C7AD026
:103CB000542C00F0B380452C00F0D8804D2C6DD1F1
:103CC000002E6BD05A1CEA605C781346D5E701F0F1
:103CD00083F8EB6804461B78492B03D0204602B0DA
:103CE000BDE8F081002899D02B6A6A6A934295DA80
:103CF000EA69591C42F82300284629629EE70232ED
:103D00006549C2600322FFF75DFB0446284601F0C7
:103D100063F82246034601212846FFF707FB2A6B7A
:103D2000EB6803322A631B780446492BD6D100285E
:103D30003FF474AF2B6A6A6A9342BFF66FAFEA69C9
:103D4000591C42F82300296277E7284601F044F81D
:103D5000CEB10121324603462846FFF7E7FA064670
:103D6000EB68532C1C7888D0452C8CD0B6B12B6ACC
:103D70006A6A934212DAEA69591C42F82360EB68D6
:103D800029621C7879E70646EAE75B7803F0DF03EF
:103D9000542BDAD1284600F083F8D9E700203860A8
:103DA00002B0BDE8F081002EF8D02846FFF7B8FE3B
:103DB0000421CFE728460121FFF7DEFBC8E75A1CA4
:103DC000EA605A78732A3DD0642A2BD04FF0FF372F
:103DD0002846FFF705FF044620B10378442B01D0A5
:103DE000462B29D17B1C25D06B69AA69934213DA33
:103DF00003EB43022969013392006B618B1803D0F6
:103E0000452088549F605C60284632460221FFF7B7
:103E10008DFA02B0BDE8F0810023F5E72846FFF7F0
:103E2000D7FC95E70233EB602846FFF7B9FC071E85
:103E3000CEDAF3E62346E7E72846FFF7EBFC002857
:103E4000D0D1EBE60233EB602846FFF7E3FC002815
:103E50003FF4E4AE284611490E22FFF7B3FA32468A
:103E6000034602212846FFF761FAF2E63E60002E83
:103E70003FF4D4AEB8F1000F04D0019BCDF804801C
:103E8000C8F80430EB681A78452A7FF4C7AE0133CE
:103E9000EB600198DDE600BFD8A50000C8A50000D2
:103EA000F0B5C26883B013780446722B54D0562BF9
:103EB00052D04B2B50D0A3F130014A297ED8DFE8F5
:103EC00011F0A300A300A300A300A300A300A3007C
:103ED000A300A300A3007D007D007D007D007D0088
:103EE0007D007D00A8007D00D20002017D00DF0082
:103EF000F5007D007D007D007D007D007501A30043
:103F0000C601AC017D00B901D301F6010E027D00AE
:103F10007D007D007D00A3007D007D007D007D0093
:103F20007D007D001F021F021F021F021F021F02D1
:103F30001F021F021F021F027D001F021F021F021D
:103F40001F027D007D007D001F021F028A001F02EC
:103F50001F021F021F021F02204601A90022FFF7B5
:103F60004BFA054650B32046FFF79AFF286028B366
:103F700002781F3AD2B2012A23D9019AF2B1236AF8
:103F8000616A8B421ADAE1695D1C41F823200198CD
:103F9000256203B0F0BD204601F05EF841210246E3
:103FA00000232046FFF7C2F9019038B1E3681A7880
:103FB00022B15A1CE2601B78452B1AD0002003B0B6
:103FC000F0BD019A416842602B6801932960019A13
:103FD000002AD4D1F2E70132E2602046FFF72AFC42
:103FE0002821024600232046FFF7A0F9019000286F
:103FF000E4D0236A626A9342E0DAE269591C42F82B
:10400000230001982162DAE72046FFF7E9FD0190DD
:10401000EDE7511CE16053785F2B00F07E82303B6E
:10402000DBB2092B00F281820A460132E26013788A
:10403000303BDBB2092BF8D9521A2046FFF7C2F900
:104040000546002830D0E1680B785F2B2CD1013178
:10405000E1602046FFF724FF2A4603462A21204636
:10406000FFF764F9D3E70132E2602046FFF718FF5B
:104070002521024600232046FFF758F90190B6E7B4
:10408000531CE36053780121592B04BF0232E260D4
:10409000204600F0D1FA01462046FFF707FAE36810
:1040A0001A78452A00F03E820020B0E70132E26033
:1040B0002046FFF7F5FE2621024600232046FFF7A3
:1040C00035F9019093E7531CE3605378002B3FF4DC
:1040D00075AF931CE3605378463B302B3FF66EAFD1
:1040E00001A151F823F000BF05440000BD3F0000CE
:1040F000BD3F0000BD3F0000BD3F0000BD3F0000D0
:10410000BD3F0000BD3F0000BD3F0000BD3F0000BF
:10411000BD3F0000BD3F0000BD3F0000BD3F0000AF
:10412000973F0000BD3F0000BD3F0000BD3F0000C5
:10413000BD3F0000BD3F0000BD3F0000BD3F00008F
:10414000BD3F0000BD3F0000BD3F0000BD3F00007F
:10415000BD3F0000F9430000BD3F0000BD3F00002F
:10416000D1430000A943000081430000BD3F00008F
:104170005943000029430000BD3F0000BD3F00003F
:10418000BD3F0000BD3F0000DD440000BD3F00001A
:10419000C7440000BD3F0000BD3F0000A344000035
:1041A000973F0000BD3F00006D4400000132E26017
:1041B0002046FFF775FE01AE074631462046012234
:1041C000FFF71AF9054600283FF46EAF2046FFF7C7
:1041D00067FE286000283FF467AFB54216D001782B
:1041E000A1F11F02D2B2012A40F2A78129290DD0E4
:1041F000019A002A3FF458AF236A616A8B42BFF6E6
:1042000053AFE169581C41F8232020623A4620460A
:104210002B21019BFFF78AF8F9E60132E260204684
:10422000FFF73EFE2221024600232046FFF77EF8DC
:104230000190DCE60132E2602046FFF731FE2321E7
:10424000024600232046FFF771F80190CFE60132C5
:10425000E2602046FFF724FE242102460023204688
:10426000FFF764F80190C2E65378A3F13002D2B2AE
:10427000092A06D95F2B04D0413BDBB2192B00F28F
:10428000648120460021FFF777F9E36801901B78ED
:104290000546492B7FF493AE2046FFF741FC2A46A2
:1042A000034604212046FFF741F801909FE620468F
:1042B000FFF78EFAE36801901B78492B7FF497AEE5
:1042C00000283FF47BAE236A626A9342BFF676AE63
:1042D000E269591C42F82300019D2162DCE70132AA
:1042E000E2602046FFF7A6FA01902046FFF7D8FDCE
:1042F00021210246019B2046FFF718F8019076E63F
:104300006169A069613BA14D03EB8303814205EB29
:104310008303C0F2F580002043685968236B0132A3
:104320000B44E26023634AE66369A269934280F228
:10433000F68003EB43022169920001338818636120
:1043400000F0EE80924D27238B542B4645605A682F
:10435000236B1344236332E66369A269934280F2BC
:10436000DE8003EB43022169920001338818636108
:1043700000F0D680874D27238B542B464560E6E717
:104380006369A269934280F2CA8003EB4302216908
:10439000920001338818636100F0C2807E4D2723AC
:1043A0008B542B464560D2E76369A269934280F241
:1043B000B68003EB430221699200013388186361E0
:1043C00000F0AE80754D27238B542B464560BEE729
:1043D0006369A269934280F2A28003EB43022169E0
:1043E000920001338818636100F09A806C4D272396
:1043F0008B542B464560AAE720466A490422FEF703
:10440000E1FFDCE56369A1698B4280F2AA80216942
:1044100003EB4305013301EB850563612C23019513
:104420002B709378303BDBB2092B8CBF0023012328
:104430002B81002B40F097802046FFF731FD68600C
:10444000019B5B68002B3FF4B9AD04F10C00FFF752
:1044500063F9E3681A7832B15A1CE2601A78B2F153
:1044600073035A425A4101984281A8E593785F2B21
:104470007FD02046FFF778F90546002D00F08380B5
:10448000E3681A785F2A7FF40FAE0133E3602046B9
:10449000FFF706FD2A4603462D212046FEF746FF7C
:1044A000B5E56369A269934239DA03EB43022169F6
:1044B000920001338818636132D03B4D27238B541F
:1044C0002B46456043E72046FFF7EAFC49210246B8
:1044D00000232046FEF72AFF019088E56369A26960
:1044E00093421CDA03EB43022169920001338818DE
:1044F000636115D02D4D27238B542B46456026E74D
:1045000001EB41002569013180006161291837D034
:1045100027262E5408464B60FFE6002597E500202D
:10452000436814E70133E36071E5204600F094FD31
:10453000054600287FF487ADB6E5019942684160E1
:104540002B68117801932A6050E62046FFF748FB5C
:10455000019000283FF432AD0378182B7FF449AD69
:104560002DE500255AE704F10C00FFF7D5F8019D71
:1045700062E70332E260204600F06EFD05467CE70C
:104580004B680846C9E6284641E500BF309F000059
:104590009CA1000074A1000038A1000060A10000EF
:1045A0004CA10000DCA5000088A10000B0A1000023
:1045B00070B5002382B0C2680193137804464BB3F0
:1045C000452B27D02E2B25D001AE17E04F2B17D02F
:1045D0002046FFF765FC05462E2120462A4600238B
:1045E000C5B1FEF7A3FE3060A0B1E26800F1080695
:1045F000137843B1452B06D02E2B04D0522BE5D196
:104600005378452BE4D1019B23B19A682AB118460F
:1046100002B070BD002002B070BD5968087827282C
:10462000F5D14968087C0928F1D14D68216B1846FD
:10463000491B21635A60EBE770B5C36804461A78DA
:104640004A2A0DD071B90D462046FFF7B1FF034647
:1046500070B120462A462921BDE87040FEF766BEAB
:104660000133C3602046FFF71BFC05460028EBD151
:10467000002070BD2DE9F047C36805461A780E4644
:10468000472A35D0542A33D0FFF7AAFA044660B33C
:1046900016B1AB68DB071FD5EB681B782BB3452B36
:1046A00023D021460B78042BA3F11C0200F0A68036
:1046B000C0F0A280042A00F29F8049680029F1D14D
:1046C0002846FFF7B9FF2246034603212846BDE8E6
:1046D000F047FEF72BBE64682378A3F11C02D2B228
:1046E000042AF8D9022B00F06F812046BDE8F0873C
:1046F000296B01F114022A631A78542A05D0472A3B
:1047000000F0EE800020BDE8F0875A1CEA605A787D
:10471000002AF7D09A1CEA605B78433B332BF1D830
:1047200001A252F823F000BF314C00000547000001
:10473000054700001B4C000005470000054C000029
:10474000EF4B0000D94B0000054700000547000073
:104750000547000005470000054700000547000029
:104760000547000005470000C34B0000A94B0000AF
:10477000054700008F4B0000534B00000547000029
:1047800005470000054700000547000005470000F9
:1047900005470000054700000547000005470000E9
:1047A00005470000054700001F4B000005470000BB
:1047B000054700000547000005470000694B000061
:1047C00005470000054700000547000005470000B9
:1047D00005470000054700000547000005470000A9
:1047E0000547000005470000054700000547000099
:1047F00005470000F94A0000002161E74B68002BE3
:1048000000F0F2801A78013A322A00F2ED8001A11C
:1048100051F822F0E1490000E1490000E9490000B7
:10482000E9490000E9490000E9490000F9470000B2
:10483000F9470000E9490000E9490000E9490000A2
:10484000E9490000E9490000E9490000E9490000A0
:10485000E9490000E9490000E9490000E949000090
:10486000E9490000E9490000E9490000E949000080
:10487000E9490000E9490000E9490000E949000070
:10488000E9490000E9490000E9490000E949000060
:10489000E9490000E9490000E9490000E949000050
:1048A000E9490000E9490000E9490000E949000040
:1048B000E9490000E9490000E9490000E949000030
:1048C000E9490000E9490000E9490000E949000020
:1048D000E9490000E9490000E9490000F947000002
:1048E0005A1CEA605A78002A3FF40CAF9A1CEA601E
:1048F0005A78413A312A3FF605AF01A151F822F02A
:10490000B54A0000054700000547000005470000C4
:104910000547000005470000054700000547000067
:104920000547000005470000054700000547000057
:104930000547000005470000054700000547000047
:1049400005470000974A000005470000CD4A0000D7
:1049500005470000814A00000547000005470000A8
:104960000547000005470000054700000547000017
:104970000547000005470000054700000547000007
:1049800005470000054700000547000005470000F7
:1049900005470000054700000547000005470000E7
:1049A00005470000054700000547000005470000D7
:1049B00005470000054700000547000005470000C7
:1049C00005470000ED490000A36800E05B681A7825
:1049D0001C3AD2B2042AF9D9A3602046BDE8F08778
:1049E0009B68002B7FF40EAF012169E605F10C00F6
:1049F000FEF792FE01287FF785AEEB681A78002A51
:104A00003FF480AE5E1CEE601B785F2B7FF47AAEC5
:104A1000471E4FF000084FF03F093378002B3FF45A
:104A200071AE242B00F024810024335D23B1242BAC
:104A300002D00134BC42F8DB314628462246FEF75C
:104A4000C1FCEE683F1B2644EE6000283FF45AAEDE
:104A5000B8F1000F00F02981424603463E21284666
:104A6000FEF764FC804600283FF44CAE002FD4DCF7
:104A7000284642463D210023BDE8F047FEF756BCDC
:104A80002846FFF7ADF81321024600232846BDE86B
:104A9000F047FEF74BBC2846FFF7A2F8044628462D
:104AA000FEF762FE2246034616212846BDE8F0477F
:104AB000FEF73CBC28460021FFF7DCFD172102462B
:104AC00000232846BDE8F047FEF730BC9A78284618
:104AD0000021002A00F0EB80DA1CEA609B786E2B44
:104AE00040F0E580FFF7C6FD482102460023284636
:104AF000BDE8F047FEF71ABC28467621FEF7DCFE3B
:104B000000283FF4FFAD28460021FFF7B3FD102138
:104B1000024600232846BDE8F047FEF707BC2846BA
:104B20000021FEF7C9FE00283FF4ECAD2846002125
:104B3000FEF7C2FE00283FF4E5AD28460021FFF74E
:104B400099FD1121024600232846BDE8F047FEF7F3
:104B5000EDBB2846FFF744F81521024600232846FE
:104B6000BDE8F047FEF7E2BB28466821FEF7A4FE49
:104B700000283FF4C7AD28460021FFF77BFD0F2139
:104B8000024600232846BDE8F047FEF7CFBB0F31B1
:104B900029632846FFF784F90921024600232846A5
:104BA000BDE8F047FEF7C2BB0A3129632846FFF78C
:104BB00077F90A21024600232846BDE8F047FEF7B0
:104BC000B5BB2846FFF76CF90D21024600232846A5
:104BD000BDE8F047FEF7AABB2846FFF761F91221AE
:104BE000024600232846BDE8F047FEF79FBB284653
:104BF000FFF756F90C21024600232846BDE8F0478E
:104C0000FEF794BB2846FEF7EBFF14210246002373
:104C10002846BDE8F047FEF789BB2846FFF740F974
:104C20000E21024600232846BDE8F047FEF77EBB72
:104C30002846FFF735F9044605F10C00FEF76CFD38
:104C40000028FFF65FADEA6811785F297FF45AAD5E
:104C50000132EA602846FFF723F92B6B0246591D03
:104C60002963234628460B21BDE8F047FEF75EBBCB
:104C70007378532B27D05F2B23D0242B7FF442ADA6
:104C80001C466B69AA6993421FDA2A69581C03EB18
:104C90004301686112EB810017D002F82190446053
:104CA000EE68023F0236EE60D2E68046DEE6FFF7AF
:104CB000E1FC4721024600232846BDE8F047FEF705
:104CC00035BB2E24DDE72F24DBE7EB680020023321
:104CD000EB60BDE8F08700BF2DE9F041C368804676
:104CE0001A786AB35A1CC260587893F800C018B199
:104CF0009A1CC8F80C205878BCF1760F41D1A0F16D
:104D00003004E3B2092B1DD84046FEF793FDD8F8D6
:104D10001430D8F81820014693422FDA03EB4302EF
:104D2000D8F8100001339200C8F81430831825D049
:104D300021B3322585545C6099601846BDE8F08146
:104D400094461046234F3D25002304E0644512D9C4
:104D50000D46AB4212D0EA1A02EBD27203EB6201AB
:104D60000A01BE583A443478A445EFD17478A04281
:104D700017D08442ECD84B1CAB42ECD10020BDE8EC
:104D8000F081BCF1630FDDD17628DBD14046FFF71F
:104D900087F83321024600234046BDE8F041FEF784
:104DA000C5BAD8F81430D8F818108B42E6DA03EBFD
:104DB0004301D8F8100001338900C8F814304318B3
:104DC00005D0312444545A601846BDE8F081184695
:104DD000BDE8F081C4A10000F8B5C26804461378AC
:104DE000A3F13001C9B2092930D9A3F16101C9B2D7
:104DF000192934D9A3F14301C9B2012971D94C2B26
:104E000000F08780552B40F08F8053786C2B30D08A
:104E1000742B40F08980531CC3605178742900F0D2
:104E2000C38042294FF0000517D10133E3602046CB
:104E3000FEF700FD2A4603464A212046FEF776FA91
:104E4000E36805461A78422AEFD006E0FEF7F2FC46
:104E5000E368054619784229E7D02846F8BDFFF7F0
:104E60003BFF054610B10378312B5FD0E36819781A
:104E7000F1E7531CC36051786C29D2D10232C26071
:104E8000FFF796FBE3680646002800F0E0801978FB
:104E90004529C6D10133E3602046FEF781FC002896
:104EA000C0F29C806369A269934280F2978003EB11
:104EB00043022169920001338D18636100F08E80F6
:104EC00044238B546E60A860236A626A934280F226
:104ED0008580E269591C42F82350E3682162197801
:104EE000B9E7C06A00283CD00178002937D1216B8E
:104EF00083680B4423631178432978D0442973D104
:104F00005378303B052B4DD8DFE803F0482D464C55
:104F10004C4A0132C260FEF78DFC054620B12046A6
:104F2000FEF778FC0028A1D10020F8BD4368226B71
:104F3000996818680A4407322263464903F0CEFF95
:104F4000002893D12046FEF775FC2A4603463521FA
:104F50002046FEF7EBF9E368054619787BE7182948
:104F6000C5D01946C8E702276169A569931CA94203
:104F7000E36037DA01EB410526690131AD0061617B
:104F800071192FD070B34FF0080C06F805C00D460C
:104F90000F71886091785EE70327E5E70127E3E773
:104FA0000427E1E7002558E70232C260FEF7F8FB6C
:104FB000002813DB6369A26993420FDA03EB430213
:104FC0002169920001338D18636107D046238B5409
:104FD0006860236A626A9342FFF67BAFE36800254C
:104FE000197838E70025D5E71346002533E75378CD
:104FF000313B042BD6D801A151F823F043500000D7
:10500000115000004B500000A54F00004750000019
:1050100002276169A569931CA942E360E2DA01EB0A
:10502000410526690131AD0061617119DAD00028AE
:10503000D8D04FF0070C06F805C00D460F718860F8
:10504000A8E70127E5E70427E3E70327E1E70546AB
:10505000197800E7E4A500002DE9F041C168044695
:105060000B784C2B00F09F80542B00F0A080732B0A
:1050700058D0662B2ED0A3F13002D2B2092A0DD817
:105080002046FFF7A9FE0546002800F08380E3686C
:105090001B78492B00F0A380BDE8F0816F2B7CD0FA
:1050A000692B00F0A780742B17D14B786C2B14D18F
:1050B000FEF7F6FEE16805460231E1602046452133
:1050C00000F0ACF92A46034630212046BDE8F04105
:1050D000FEF72CB94B78702B40D02046FFF7FCFD33
:1050E0000546002856D00678312E64D0322E2BD0BB
:1050F000332E4FD10027E3681A785F2A00F00D8124
:105100002046FFF7A9FF03462FB11A462046372154
:10511000FEF70CF9034620462A463521BDE8F0414A
:10512000FEF704B94B78722B00F0DE80702BD4D1DF
:105130000231C160FFF790FF49210246002320465B
:10514000BDE8F041FEF7F2B843680027032B21D8F1
:10515000DFE813F0560041019A005E008B1CC3602B
:105160008B78542B00F0D580FEF71AFB451C11D02C
:105170006369A26993420DDA03EB430221690133AB
:10518000920063618B1805D0062088545D60184634
:10519000BDE8F0810020BDE8F0814B786E2B9CD1FA
:1051A0000231C1606CE7BDE8F041FEF753BCBDE8D9
:1051B000F041FEF70DBBD0F80480236BD8F808202F
:1051C000D8F80070023A1344236338468E4903F03E
:1051D00085FE002800F0A980D8F80C30B6E72046FC
:1051E000FEF79EFC2A46034604212046BDE8F04116
:1051F000FEF79CB84B786C2B7FF46FAF00255BE714
:1052000020462A4634210023BDE8F041FEF78EB83F
:1052100038467E4903F062FE002800F08A803B7821
:105220006E2BB7D17B78772B01D0612BB2D15F2168
:10523000204600F0F3F806462046FEF731FEE1680E
:1052400007460B78452B00F0AB80702B00F0B78041
:10525000692B9FD14B786C2B9CD12046FFF7FCFE2D
:1052600003463A4620463A21FEF760F832460346A6
:1052700039212046FEF75AF82A46034638212046AF
:10528000BDE8F041FEF752B86B681B685A78632A94
:1052900062D02046FFF7E0FE804638465C4903F0C6
:1052A0001DFE002852D038465A4903F017FE28B197
:1052B0003846594903F012FE00286CD12046FFF70A
:1052C0008BFDE36806461B78492B6DD0424633467A
:1052D00020463721FEF72AF82A4603463621204683
:1052E000BDE8F041FEF722B80231C160FEF7D8FDFB
:1052F00005462046FFF770FDE1680646097820461E
:10530000492938D02A4633460121BDE8F041FEF74D
:105310000DB80331C16000252AE70133E360204660
:10532000452100F07BF80346EEE62046FEF7B8FD87
:10533000F0E62046FFF790FE06462046FFF78CFE7B
:1053400007462046FFF788FE03468AE720464521A8
:1053500000F064F80646B9E71B78A3F16302D2B205
:10536000012A03D9723BDBB2012B92D82046FEF70B
:1053700097FD804691E7FEF7D3FB324603460421B2
:105380002046FDF7D3FF2A46034601212046BDE80B
:10539000F041FDF7CBBF2046FFF75EFE064695E7DE
:1053A0000131E16000235CE72046FEF7B9FB32469D
:1053B000034604212046FDF7B9FF064686E74B78F1
:1053C000692B7FF4E7AE0231E1602046452100F011
:1053D00025F8034645E72FB13B78702B06D06D2B9F
:1053E00004D00027332E7FF48BAE84E67A789A427D
:1053F000F7D1E3681A785F2A01D00127F2E7013379
:10540000E3600027EEE700BF90AA0000F4A50000CB
:10541000E8A50000ECA50000F0A50000F0B5C36809
:105420000F46197883B00022B9420446019218BF92
:1054300001AE0AD11BE0FDF779FF306000F10806EC
:1054400068B1E3681A78BA420CD02046FFF704FE30
:1054500005462E2120462A460023002DEBD10020B0
:1054600003B0F0BD01980133E36003B0F0BD013338
:10547000C3602E21134603B0BDE8F040FDF756BFD0
:105480002DE9F041044608460D4603F031FD50B3C6
:10549000D4F800112F184FF0000809E00B46BD4268
:1054A00001F10101C4F80011E65484F804611AD036
:1054B000FF2915F8016BF1D1D4F8083184F8FF8089
:1054C0002046D4F80C219847D4F8203101210B4410
:1054D000C4F82031BD424FF00003C4F80011E65477
:1054E00084F80461E4D1BDE8F08100BF2DE9F04FFC
:1054F000137897B0154604460E464B2B01F2968161
:10550000DFE813F08C04AB03AB031F03FC04E404DB
:1055100065051A030803E102BA0293026C022E0227
:105520000702E001B90192016B0144011D01F6007F
:10553000CF00A80080006B006B006B004C004C009B
:105540004C004C004C004C004C00F708F7084C0095
:105550004C00C9081909BC0746072907E6062907B0
:10556000B206B2066F091F094809A2085F054B057C
:105570003F053A0579067406740635063506FE05BC
:10558000F305E505B4058D057B082D08540894093D
:10559000D107F70765040F04D803B904D4F8141130
:1055A00016ABD4F8102143F8401D00210795C4F82C
:1055B0001431099208916A682046314602F03EFA99
:1055C000089B23B931462A46204602F043FA069B3F
:1055D000C4F8143117B0BDE8F08FD0F814717FB162
:1055E0003A46916849B951680978A1F11900C0B2E9
:1055F000022805D88B4201F05B851268002AF0D1A1
:105600003946CDE79768D2F80490002FE2D0002504
:10561000D0F80011A84609E00B4601310135AF4230
:10562000C4F80011E65484F80461D3D0FF2919F8B6
:105630000560F1D1D4F8083184F8FF802046D4F811
:105640000C219847D4F8203101210B44C4F82031B3
:105650000023E3E7D64FD0F8001107F1110A4FF00D
:1056600000090AE00B4601315745C4F8001104F85F
:10567000038084F8048101F01382FF2917F8018F59
:10568000F0D1D4F8083184F8FF902046D4F80C21EA
:105690009847D4F8203101210B44C4F8203100236D
:1056A000E2E7C44FD0F8001107F1150A4FF00009E6
:1056B0000AE00B4601315745C4F8001104F8038095
:1056C00084F8048101F0F680FF2917F8018FF0D1EA
:1056D000D4F8083184F8FF902046D4F80C2198477C
:1056E000D4F8203101210B44C4F820310023E2E733
:1056F000B14FD0F8001107F1190A4FF000090AE084
:105700000B4601315745C4F8001104F8038084F8B2
:10571000048101F0BE80FF2917F8018FF0D1D4F881
:10572000083184F8FF902046D4F80C219847D4F82B
:10573000203101210B44C4F820310023E2E79F4FC0
:10574000D0F8001107F1160A4FF000090AE00B46E5
:1057500001315745C4F8001104F8038084F804812E
:1057600001F0E180FF2917F8018FF0D1D4F808315A
:1057700084F8FF902046D4F80C219847D4F82031C3
:1057800001210B44C4F820310023E2E78C4FD0F80C
:10579000001107F1130A4FF000090AE00B4601312E
:1057A0005745C4F8001104F8038084F8048101F01F
:1057B000B380FF2917F8018FF0D1D4F8083184F8AD
:1057C000FF902046D4F80C219847D4F820310121CD
:1057D0000B44C4F820310023E2E77A4FD0F80011DF
:1057E00007F10F0A4FF000090AE00B460131574557
:1057F000C4F8001104F8038084F8048101F09A8051
:10580000FF2917F8018FF0D1D4F8083184F8FF9000
:105810002046D4F80C219847D4F8203101210B44BC
:10582000C4F820310023E2E7674FD0F8001107F1F8
:105830001A0A4FF000090AE00B4601315745C4F837
:10584000001104F8038084F8048101F01B80FF2913
:1058500017F8018FF0D1D4F8083184F8FF90204672
:10586000D4F80C219847D4F8203101210B44C4F816
:1058700020310023E2E7554FD0F8001107F1110A5B
:105880004FF000090AE00B4601315745C4F80011FA
:1058900004F8038084F8048101F0AF80FF2917F831
:1058A000018FF0D1D4F8083184F8FF902046D4F865
:1058B0000C219847D4F8203101210B44C4F8203141
:1058C0000023E2E7424FD0F8001107F1150A4FF02C
:1058D00000090AE00B4601315745C4F8001104F8ED
:1058E000038084F8048101F08180FF2917F8018F7B
:1058F000F0D1D4F8083184F8FF902046D4F80C2178
:105900009847D4F8203101210B44C4F820310023FA
:10591000E2E7304FD0F8001107F1100A4FF000090C
:105920000AE00B4601315745C4F8001104F8038022
:1059300084F8048101F05380FF2917F8018FF0D11A
:10594000D4F8083184F8FF902046D4F80C21984709
:10595000D4F8203101210B44C4F820310023E2E7C0
:105960001D4FD0F8001107F1120A4FF000090AE0AC
:105970000B4601315745C4F8001104F8038084F840
:10598000048101F02580FF2917F8018FF0D1D4F8A8
:10599000083184F8FF902046D4F80C219847D4F8B9
:1059A000203101210B44C4F820310023E2E700BF7D
:1059B0003FA7000027A700000BA70000F3A60000E8
:1059C000DFA60000CFA60000B3A600009FA600003F
:1059D0009BA6000087A6000073A60000BB4FD0F86E
:1059E000001107F10D0A4FF000090AE00B460131E2
:1059F0005745C4F8001104F8038084F8048100F0CE
:105A0000D987FF2917F8018FF0D1D4F8083184F82D
:105A1000FF902046D4F80C219847D4F8203101217A
:105A20000B44C4F820310023E2E7A94FD0F800115D
:105A300007F1180A4FF000090AE00B4601315745FB
:105A4000C4F8001104F8038084F8048100F087870B
:105A5000FF2917F8018FF0D1D4F8083184F8FF90AE
:105A60002046D4F80C219847D4F8203101210B446A
:105A7000C4F820310023E2E7964FD0F8001107F177
:105A8000080A4FF000090AE00B4601315745C4F8F7
:105A9000001104F8038084F8048100F05987FF297D
:105AA00017F8018FF0D1D4F8083184F8FF90204620
:105AB000D4F80C219847D4F8203101210B44C4F8C4
:105AC00020310023E2E7844FD0F8001107F10B0AE0
:105AD0004FF000090AE00B4601315745C4F80011A8
